{
  "_format": "hh-sol-artifact-1",
  "contractName": "MySampleNFT",
  "sourceName": "contracts/MySampleNFT.sol",
  "abi": [
    {
      "inputs": [],
      "stateMutability": "nonpayable",
      "type": "constructor"
    },
    {
      "anonymous": false,
      "inputs": [
        {
          "indexed": true,
          "internalType": "address",
          "name": "owner",
          "type": "address"
        },
        {
          "indexed": true,
          "internalType": "address",
          "name": "approved",
          "type": "address"
        },
        {
          "indexed": true,
          "internalType": "uint256",
          "name": "tokenId",
          "type": "uint256"
        }
      ],
      "name": "Approval",
      "type": "event"
    },
    {
      "anonymous": false,
      "inputs": [
        {
          "indexed": true,
          "internalType": "address",
          "name": "owner",
          "type": "address"
        },
        {
          "indexed": true,
          "internalType": "address",
          "name": "operator",
          "type": "address"
        },
        {
          "indexed": false,
          "internalType": "bool",
          "name": "approved",
          "type": "bool"
        }
      ],
      "name": "ApprovalForAll",
      "type": "event"
    },
    {
      "anonymous": false,
      "inputs": [
        {
          "indexed": true,
          "internalType": "address",
          "name": "previousOwner",
          "type": "address"
        },
        {
          "indexed": true,
          "internalType": "address",
          "name": "newOwner",
          "type": "address"
        }
      ],
      "name": "OwnershipTransferred",
      "type": "event"
    },
    {
      "anonymous": false,
      "inputs": [
        {
          "indexed": true,
          "internalType": "address",
          "name": "from",
          "type": "address"
        },
        {
          "indexed": true,
          "internalType": "address",
          "name": "to",
          "type": "address"
        },
        {
          "indexed": true,
          "internalType": "uint256",
          "name": "tokenId",
          "type": "uint256"
        }
      ],
      "name": "Transfer",
      "type": "event"
    },
    {
      "inputs": [
        {
          "internalType": "address",
          "name": "to",
          "type": "address"
        },
        {
          "internalType": "uint256",
          "name": "tokenId",
          "type": "uint256"
        }
      ],
      "name": "approve",
      "outputs": [],
      "stateMutability": "nonpayable",
      "type": "function"
    },
    {
      "inputs": [
        {
          "internalType": "address",
          "name": "owner",
          "type": "address"
        }
      ],
      "name": "balanceOf",
      "outputs": [
        {
          "internalType": "uint256",
          "name": "",
          "type": "uint256"
        }
      ],
      "stateMutability": "view",
      "type": "function"
    },
    {
      "inputs": [
        {
          "internalType": "uint256",
          "name": "tokenId",
          "type": "uint256"
        }
      ],
      "name": "getApproved",
      "outputs": [
        {
          "internalType": "address",
          "name": "",
          "type": "address"
        }
      ],
      "stateMutability": "view",
      "type": "function"
    },
    {
      "inputs": [
        {
          "internalType": "address",
          "name": "owner",
          "type": "address"
        },
        {
          "internalType": "address",
          "name": "operator",
          "type": "address"
        }
      ],
      "name": "isApprovedForAll",
      "outputs": [
        {
          "internalType": "bool",
          "name": "",
          "type": "bool"
        }
      ],
      "stateMutability": "view",
      "type": "function"
    },
    {
      "inputs": [
        {
          "internalType": "address",
          "name": "recipient",
          "type": "address"
        },
        {
          "internalType": "string",
          "name": "_tokenURI",
          "type": "string"
        }
      ],
      "name": "mintNFT",
      "outputs": [
        {
          "internalType": "uint256",
          "name": "",
          "type": "uint256"
        }
      ],
      "stateMutability": "nonpayable",
      "type": "function"
    },
    {
      "inputs": [],
      "name": "name",
      "outputs": [
        {
          "internalType": "string",
          "name": "",
          "type": "string"
        }
      ],
      "stateMutability": "view",
      "type": "function"
    },
    {
      "inputs": [],
      "name": "owner",
      "outputs": [
        {
          "internalType": "address",
          "name": "",
          "type": "address"
        }
      ],
      "stateMutability": "view",
      "type": "function"
    },
    {
      "inputs": [
        {
          "internalType": "uint256",
          "name": "tokenId",
          "type": "uint256"
        }
      ],
      "name": "ownerOf",
      "outputs": [
        {
          "internalType": "address",
          "name": "",
          "type": "address"
        }
      ],
      "stateMutability": "view",
      "type": "function"
    },
    {
      "inputs": [],
      "name": "renounceOwnership",
      "outputs": [],
      "stateMutability": "nonpayable",
      "type": "function"
    },
    {
      "inputs": [
        {
          "internalType": "address",
          "name": "from",
          "type": "address"
        },
        {
          "internalType": "address",
          "name": "to",
          "type": "address"
        },
        {
          "internalType": "uint256",
          "name": "tokenId",
          "type": "uint256"
        }
      ],
      "name": "safeTransferFrom",
      "outputs": [],
      "stateMutability": "nonpayable",
      "type": "function"
    },
    {
      "inputs": [
        {
          "internalType": "address",
          "name": "from",
          "type": "address"
        },
        {
          "internalType": "address",
          "name": "to",
          "type": "address"
        },
        {
          "internalType": "uint256",
          "name": "tokenId",
          "type": "uint256"
        },
        {
          "internalType": "bytes",
          "name": "_data",
          "type": "bytes"
        }
      ],
      "name": "safeTransferFrom",
      "outputs": [],
      "stateMutability": "nonpayable",
      "type": "function"
    },
    {
      "inputs": [
        {
          "internalType": "address",
          "name": "operator",
          "type": "address"
        },
        {
          "internalType": "bool",
          "name": "approved",
          "type": "bool"
        }
      ],
      "name": "setApprovalForAll",
      "outputs": [],
      "stateMutability": "nonpayable",
      "type": "function"
    },
    {
      "inputs": [
        {
          "internalType": "string",
          "name": "baseURI_",
          "type": "string"
        }
      ],
      "name": "setBaseURI",
      "outputs": [],
      "stateMutability": "nonpayable",
      "type": "function"
    },
    {
      "inputs": [
        {
          "internalType": "bytes4",
          "name": "interfaceId",
          "type": "bytes4"
        }
      ],
      "name": "supportsInterface",
      "outputs": [
        {
          "internalType": "bool",
          "name": "",
          "type": "bool"
        }
      ],
      "stateMutability": "view",
      "type": "function"
    },
    {
      "inputs": [],
      "name": "symbol",
      "outputs": [
        {
          "internalType": "string",
          "name": "",
          "type": "string"
        }
      ],
      "stateMutability": "view",
      "type": "function"
    },
    {
      "inputs": [
        {
          "internalType": "uint256",
          "name": "tokenId",
          "type": "uint256"
        }
      ],
      "name": "tokenURI",
      "outputs": [
        {
          "internalType": "string",
          "name": "",
          "type": "string"
        }
      ],
      "stateMutability": "view",
      "type": "function"
    },
    {
      "inputs": [
        {
          "internalType": "address",
          "name": "from",
          "type": "address"
        },
        {
          "internalType": "address",
          "name": "to",
          "type": "address"
        },
        {
          "internalType": "uint256",
          "name": "tokenId",
          "type": "uint256"
        }
      ],
      "name": "transferFrom",
      "outputs": [],
      "stateMutability": "nonpayable",
      "type": "function"
    },
    {
      "inputs": [
        {
          "internalType": "address",
          "name": "newOwner",
          "type": "address"
        }
      ],
      "name": "transferOwnership",
      "outputs": [],
      "stateMutability": "nonpayable",
      "type": "function"
    }
  ],
  "bytecode": "0x60806040523480156200001157600080fd5b506040518060400160405280600b81526020017f4d7953616d706c654e46540000000000000000000000000000000000000000008152506040518060400160405280600581526020017f4d794e4654000000000000000000000000000000000000000000000000000000815250816000908051906020019062000096929190620001a6565b508060019080519060200190620000af929190620001a6565b505050620000d2620000c6620000d860201b60201c565b620000e060201b60201c565b620002bb565b600033905090565b6000600660009054906101000a900473ffffffffffffffffffffffffffffffffffffffff16905081600660006101000a81548173ffffffffffffffffffffffffffffffffffffffff021916908373ffffffffffffffffffffffffffffffffffffffff1602179055508173ffffffffffffffffffffffffffffffffffffffff168173ffffffffffffffffffffffffffffffffffffffff167f8be0079c531659141344cd1fd0a4f28419497f9722a3daafe3b4186f6b6457e060405160405180910390a35050565b828054620001b49062000285565b90600052602060002090601f016020900481019282620001d8576000855562000224565b82601f10620001f357805160ff191683800117855562000224565b8280016001018555821562000224579182015b828111156200022357825182559160200191906001019062000206565b5b50905062000233919062000237565b5090565b5b808211156200025257600081600090555060010162000238565b5090565b7f4e487b7100000000000000000000000000000000000000000000000000000000600052602260045260246000fd5b600060028204905060018216806200029e57607f821691505b60208210811415620002b557620002b462000256565b5b50919050565b61308980620002cb6000396000f3fe608060405234801561001057600080fd5b50600436106101165760003560e01c8063715018a6116100a2578063b88d4fde11610071578063b88d4fde146102cb578063c87b56dd146102e7578063e985e9c514610317578063eacabe1414610347578063f2fde38b1461037757610116565b8063715018a6146102695780638da5cb5b1461027357806395d89b4114610291578063a22cb465146102af57610116565b806323b872dd116100e957806323b872dd146101b557806342842e0e146101d157806355f804b3146101ed5780636352211e1461020957806370a082311461023957610116565b806301ffc9a71461011b57806306fdde031461014b578063081812fc14610169578063095ea7b314610199575b600080fd5b61013560048036038101906101309190611d36565b610393565b6040516101429190611d7e565b60405180910390f35b610153610475565b6040516101609190611e32565b60405180910390f35b610183600480360381019061017e9190611e8a565b610507565b6040516101909190611ef8565b60405180910390f35b6101b360048036038101906101ae9190611f3f565b61058c565b005b6101cf60048036038101906101ca9190611f7f565b6106a4565b005b6101eb60048036038101906101e69190611f7f565b610704565b005b61020760048036038101906102029190612107565b610724565b005b610223600480360381019061021e9190611e8a565b6107ba565b6040516102309190611ef8565b60405180910390f35b610253600480360381019061024e9190612150565b61086c565b604051610260919061218c565b60405180910390f35b610271610924565b005b61027b6109ac565b6040516102889190611ef8565b60405180910390f35b6102996109d6565b6040516102a69190611e32565b60405180910390f35b6102c960048036038101906102c491906121d3565b610a68565b005b6102e560048036038101906102e091906122b4565b610a7e565b005b61030160048036038101906102fc9190611e8a565b610ae0565b60405161030e9190611e32565b60405180910390f35b610331600480360381019061032c9190612337565b610c53565b60405161033e9190611d7e565b60405180910390f35b610361600480360381019061035c9190612377565b610ce7565b60405161036e919061218c565b60405180910390f35b610391600480360381019061038c9190612150565b610d9b565b005b60007f80ac58cd000000000000000000000000000000000000000000000000000000007bffffffffffffffffffffffffffffffffffffffffffffffffffffffff1916827bffffffffffffffffffffffffffffffffffffffffffffffffffffffff1916148061045e57507f5b5e139f000000000000000000000000000000000000000000000000000000007bffffffffffffffffffffffffffffffffffffffffffffffffffffffff1916827bffffffffffffffffffffffffffffffffffffffffffffffffffffffff1916145b8061046e575061046d82610e93565b5b9050919050565b60606000805461048490612402565b80601f01602080910402602001604051908101604052809291908181526020018280546104b090612402565b80156104fd5780601f106104d2576101008083540402835291602001916104fd565b820191906000526020600020905b8154815290600101906020018083116104e057829003601f168201915b5050505050905090565b600061051282610efd565b610551576040517f08c379a0000000000000000000000000000000000000000000000000000000008152600401610548906124a6565b60405180910390fd5b6004600083815260200190815260200160002060009054906101000a900473ffffffffffffffffffffffffffffffffffffffff169050919050565b6000610597826107ba565b90508073ffffffffffffffffffffffffffffffffffffffff168373ffffffffffffffffffffffffffffffffffffffff161415610608576040517f08c379a00000000000000000000000000000000000000000000000000000000081526004016105ff90612538565b60405180910390fd5b8073ffffffffffffffffffffffffffffffffffffffff16610627610f69565b73ffffffffffffffffffffffffffffffffffffffff161480610656575061065581610650610f69565b610c53565b5b610695576040517f08c379a000000000000000000000000000000000000000000000000000000000815260040161068c906125ca565b60405180910390fd5b61069f8383610f71565b505050565b6106b56106af610f69565b8261102a565b6106f4576040517f08c379a00000000000000000000000000000000000000000000000000000000081526004016106eb9061265c565b60405180910390fd5b6106ff838383611108565b505050565b61071f83838360405180602001604052806000815250610a7e565b505050565b61072c610f69565b73ffffffffffffffffffffffffffffffffffffffff1661074a6109ac565b73ffffffffffffffffffffffffffffffffffffffff16146107a0576040517f08c379a0000000000000000000000000000000000000000000000000000000008152600401610797906126c8565b60405180910390fd5b80600990805190602001906107b6929190611c27565b5050565b6000806002600084815260200190815260200160002060009054906101000a900473ffffffffffffffffffffffffffffffffffffffff169050600073ffffffffffffffffffffffffffffffffffffffff168173ffffffffffffffffffffffffffffffffffffffff161415610863576040517f08c379a000000000000000000000000000000000000000000000000000000000815260040161085a9061275a565b60405180910390fd5b80915050919050565b60008073ffffffffffffffffffffffffffffffffffffffff168273ffffffffffffffffffffffffffffffffffffffff1614156108dd576040517f08c379a00000000000000000000000000000000000000000000000000000000081526004016108d4906127ec565b60405180910390fd5b600360008373ffffffffffffffffffffffffffffffffffffffff1673ffffffffffffffffffffffffffffffffffffffff168152602001908152602001600020549050919050565b61092c610f69565b73ffffffffffffffffffffffffffffffffffffffff1661094a6109ac565b73ffffffffffffffffffffffffffffffffffffffff16146109a0576040517f08c379a0000000000000000000000000000000000000000000000000000000008152600401610997906126c8565b60405180910390fd5b6109aa600061136f565b565b6000600660009054906101000a900473ffffffffffffffffffffffffffffffffffffffff16905090565b6060600180546109e590612402565b80601f0160208091040260200160405190810160405280929190818152602001828054610a1190612402565b8015610a5e5780601f10610a3357610100808354040283529160200191610a5e565b820191906000526020600020905b815481529060010190602001808311610a4157829003601f168201915b5050505050905090565b610a7a610a73610f69565b8383611435565b5050565b610a8f610a89610f69565b8361102a565b610ace576040517f08c379a0000000000000000000000000000000000000000000000000000000008152600401610ac59061265c565b60405180910390fd5b610ada848484846115a2565b50505050565b6060610aeb82610efd565b610b2a576040517f08c379a0000000000000000000000000000000000000000000000000000000008152600401610b219061287e565b60405180910390fd5b6000600860008481526020019081526020016000208054610b4a90612402565b80601f0160208091040260200160405190810160405280929190818152602001828054610b7690612402565b8015610bc35780601f10610b9857610100808354040283529160200191610bc3565b820191906000526020600020905b815481529060010190602001808311610ba657829003601f168201915b505050505090506000610bd46115fe565b9050600081511415610bea578192505050610c4e565b600082511115610c1f578082604051602001610c079291906128da565b60405160208183030381529060405292505050610c4e565b80610c2985611690565b604051602001610c3a9291906128da565b604051602081830303815290604052925050505b919050565b6000600560008473ffffffffffffffffffffffffffffffffffffffff1673ffffffffffffffffffffffffffffffffffffffff16815260200190815260200160002060008373ffffffffffffffffffffffffffffffffffffffff1673ffffffffffffffffffffffffffffffffffffffff16815260200190815260200160002060009054906101000a900460ff16905092915050565b6000610cf1610f69565b73ffffffffffffffffffffffffffffffffffffffff16610d0f6109ac565b73ffffffffffffffffffffffffffffffffffffffff1614610d65576040517f08c379a0000000000000000000000000000000000000000000000000000000008152600401610d5c906126c8565b60405180910390fd5b610d6f60076117f1565b6000610d7b6007611807565b9050610d878482611815565b610d9181846119ef565b8091505092915050565b610da3610f69565b73ffffffffffffffffffffffffffffffffffffffff16610dc16109ac565b73ffffffffffffffffffffffffffffffffffffffff1614610e17576040517f08c379a0000000000000000000000000000000000000000000000000000000008152600401610e0e906126c8565b60405180910390fd5b600073ffffffffffffffffffffffffffffffffffffffff168173ffffffffffffffffffffffffffffffffffffffff161415610e87576040517f08c379a0000000000000000000000000000000000000000000000000000000008152600401610e7e90612970565b60405180910390fd5b610e908161136f565b50565b60007f01ffc9a7000000000000000000000000000000000000000000000000000000007bffffffffffffffffffffffffffffffffffffffffffffffffffffffff1916827bffffffffffffffffffffffffffffffffffffffffffffffffffffffff1916149050919050565b60008073ffffffffffffffffffffffffffffffffffffffff166002600084815260200190815260200160002060009054906101000a900473ffffffffffffffffffffffffffffffffffffffff1673ffffffffffffffffffffffffffffffffffffffff1614159050919050565b600033905090565b816004600083815260200190815260200160002060006101000a81548173ffffffffffffffffffffffffffffffffffffffff021916908373ffffffffffffffffffffffffffffffffffffffff160217905550808273ffffffffffffffffffffffffffffffffffffffff16610fe4836107ba565b73ffffffffffffffffffffffffffffffffffffffff167f8c5be1e5ebec7d5bd14f71427d1e84f3dd0314c0f7b2291e5b200ac8c7c3b92560405160405180910390a45050565b600061103582610efd565b611074576040517f08c379a000000000000000000000000000000000000000000000000000000000815260040161106b90612a02565b60405180910390fd5b600061107f836107ba565b90508073ffffffffffffffffffffffffffffffffffffffff168473ffffffffffffffffffffffffffffffffffffffff1614806110c157506110c08185610c53565b5b806110ff57508373ffffffffffffffffffffffffffffffffffffffff166110e784610507565b73ffffffffffffffffffffffffffffffffffffffff16145b91505092915050565b8273ffffffffffffffffffffffffffffffffffffffff16611128826107ba565b73ffffffffffffffffffffffffffffffffffffffff161461117e576040517f08c379a000000000000000000000000000000000000000000000000000000000815260040161117590612a94565b60405180910390fd5b600073ffffffffffffffffffffffffffffffffffffffff168273ffffffffffffffffffffffffffffffffffffffff1614156111ee576040517f08c379a00000000000000000000000000000000000000000000000000000000081526004016111e590612b26565b60405180910390fd5b6111f9838383611a63565b611204600082610f71565b6001600360008573ffffffffffffffffffffffffffffffffffffffff1673ffffffffffffffffffffffffffffffffffffffff16815260200190815260200160002060008282546112549190612b75565b925050819055506001600360008473ffffffffffffffffffffffffffffffffffffffff1673ffffffffffffffffffffffffffffffffffffffff16815260200190815260200160002060008282546112ab9190612ba9565b92505081905550816002600083815260200190815260200160002060006101000a81548173ffffffffffffffffffffffffffffffffffffffff021916908373ffffffffffffffffffffffffffffffffffffffff160217905550808273ffffffffffffffffffffffffffffffffffffffff168473ffffffffffffffffffffffffffffffffffffffff167fddf252ad1be2c89b69c2b068fc378daa952ba7f163c4a11628f55a4df523b3ef60405160405180910390a461136a838383611a68565b505050565b6000600660009054906101000a900473ffffffffffffffffffffffffffffffffffffffff16905081600660006101000a81548173ffffffffffffffffffffffffffffffffffffffff021916908373ffffffffffffffffffffffffffffffffffffffff1602179055508173ffffffffffffffffffffffffffffffffffffffff168173ffffffffffffffffffffffffffffffffffffffff167f8be0079c531659141344cd1fd0a4f28419497f9722a3daafe3b4186f6b6457e060405160405180910390a35050565b8173ffffffffffffffffffffffffffffffffffffffff168373ffffffffffffffffffffffffffffffffffffffff1614156114a4576040517f08c379a000000000000000000000000000000000000000000000000000000000815260040161149b90612c4b565b60405180910390fd5b80600560008573ffffffffffffffffffffffffffffffffffffffff1673ffffffffffffffffffffffffffffffffffffffff16815260200190815260200160002060008473ffffffffffffffffffffffffffffffffffffffff1673ffffffffffffffffffffffffffffffffffffffff16815260200190815260200160002060006101000a81548160ff0219169083151502179055508173ffffffffffffffffffffffffffffffffffffffff168373ffffffffffffffffffffffffffffffffffffffff167f17307eab39ab6107e8899845ad3d59bd9653f200f220920489ca2b5937696c31836040516115959190611d7e565b60405180910390a3505050565b6115ad848484611108565b6115b984848484611a6d565b6115f8576040517f08c379a00000000000000000000000000000000000000000000000000000000081526004016115ef90612cdd565b60405180910390fd5b50505050565b60606009805461160d90612402565b80601f016020809104026020016040519081016040528092919081815260200182805461163990612402565b80156116865780601f1061165b57610100808354040283529160200191611686565b820191906000526020600020905b81548152906001019060200180831161166957829003601f168201915b5050505050905090565b606060008214156116d8576040518060400160405280600181526020017f300000000000000000000000000000000000000000000000000000000000000081525090506117ec565b600082905060005b6000821461170a5780806116f390612cfd565b915050600a826117039190612d75565b91506116e0565b60008167ffffffffffffffff81111561172657611725611fdc565b5b6040519080825280601f01601f1916602001820160405280156117585781602001600182028036833780820191505090505b5090505b600085146117e5576001826117719190612b75565b9150600a856117809190612da6565b603061178c9190612ba9565b60f81b8183815181106117a2576117a1612dd7565b5b60200101907effffffffffffffffffffffffffffffffffffffffffffffffffffffffffffff1916908160001a905350600a856117de9190612d75565b945061175c565b8093505050505b919050565b6001816000016000828254019250508190555050565b600081600001549050919050565b600073ffffffffffffffffffffffffffffffffffffffff168273ffffffffffffffffffffffffffffffffffffffff161415611885576040517f08c379a000000000000000000000000000000000000000000000000000000000815260040161187c90612e52565b60405180910390fd5b61188e81610efd565b156118ce576040517f08c379a00000000000000000000000000000000000000000000000000000000081526004016118c590612ebe565b60405180910390fd5b6118da60008383611a63565b6001600360008473ffffffffffffffffffffffffffffffffffffffff1673ffffffffffffffffffffffffffffffffffffffff168152602001908152602001600020600082825461192a9190612ba9565b92505081905550816002600083815260200190815260200160002060006101000a81548173ffffffffffffffffffffffffffffffffffffffff021916908373ffffffffffffffffffffffffffffffffffffffff160217905550808273ffffffffffffffffffffffffffffffffffffffff16600073ffffffffffffffffffffffffffffffffffffffff167fddf252ad1be2c89b69c2b068fc378daa952ba7f163c4a11628f55a4df523b3ef60405160405180910390a46119eb60008383611a68565b5050565b6119f882610efd565b611a37576040517f08c379a0000000000000000000000000000000000000000000000000000000008152600401611a2e90612f50565b60405180910390fd5b80600860008481526020019081526020016000209080519060200190611a5e929190611c27565b505050565b505050565b505050565b6000611a8e8473ffffffffffffffffffffffffffffffffffffffff16611c04565b15611bf7578373ffffffffffffffffffffffffffffffffffffffff1663150b7a02611ab7610f69565b8786866040518563ffffffff1660e01b8152600401611ad99493929190612fc5565b602060405180830381600087803b158015611af357600080fd5b505af1925050508015611b2457506040513d601f19601f82011682018060405250810190611b219190613026565b60015b611ba7573d8060008114611b54576040519150601f19603f3d011682016040523d82523d6000602084013e611b59565b606091505b50600081511415611b9f576040517f08c379a0000000000000000000000000000000000000000000000000000000008152600401611b9690612cdd565b60405180910390fd5b805181602001fd5b63150b7a0260e01b7bffffffffffffffffffffffffffffffffffffffffffffffffffffffff1916817bffffffffffffffffffffffffffffffffffffffffffffffffffffffff191614915050611bfc565b600190505b949350505050565b6000808273ffffffffffffffffffffffffffffffffffffffff163b119050919050565b828054611c3390612402565b90600052602060002090601f016020900481019282611c555760008555611c9c565b82601f10611c6e57805160ff1916838001178555611c9c565b82800160010185558215611c9c579182015b82811115611c9b578251825591602001919060010190611c80565b5b509050611ca99190611cad565b5090565b5b80821115611cc6576000816000905550600101611cae565b5090565b6000604051905090565b600080fd5b600080fd5b60007fffffffff0000000000000000000000000000000000000000000000000000000082169050919050565b611d1381611cde565b8114611d1e57600080fd5b50565b600081359050611d3081611d0a565b92915050565b600060208284031215611d4c57611d4b611cd4565b5b6000611d5a84828501611d21565b91505092915050565b60008115159050919050565b611d7881611d63565b82525050565b6000602082019050611d936000830184611d6f565b92915050565b600081519050919050565b600082825260208201905092915050565b60005b83811015611dd3578082015181840152602081019050611db8565b83811115611de2576000848401525b50505050565b6000601f19601f8301169050919050565b6000611e0482611d99565b611e0e8185611da4565b9350611e1e818560208601611db5565b611e2781611de8565b840191505092915050565b60006020820190508181036000830152611e4c8184611df9565b905092915050565b6000819050919050565b611e6781611e54565b8114611e7257600080fd5b50565b600081359050611e8481611e5e565b92915050565b600060208284031215611ea057611e9f611cd4565b5b6000611eae84828501611e75565b91505092915050565b600073ffffffffffffffffffffffffffffffffffffffff82169050919050565b6000611ee282611eb7565b9050919050565b611ef281611ed7565b82525050565b6000602082019050611f0d6000830184611ee9565b92915050565b611f1c81611ed7565b8114611f2757600080fd5b50565b600081359050611f3981611f13565b92915050565b60008060408385031215611f5657611f55611cd4565b5b6000611f6485828601611f2a565b9250506020611f7585828601611e75565b9150509250929050565b600080600060608486031215611f9857611f97611cd4565b5b6000611fa686828701611f2a565b9350506020611fb786828701611f2a565b9250506040611fc886828701611e75565b9150509250925092565b600080fd5b600080fd5b7f4e487b7100000000000000000000000000000000000000000000000000000000600052604160045260246000fd5b61201482611de8565b810181811067ffffffffffffffff8211171561203357612032611fdc565b5b80604052505050565b6000612046611cca565b9050612052828261200b565b919050565b600067ffffffffffffffff82111561207257612071611fdc565b5b61207b82611de8565b9050602081019050919050565b82818337600083830152505050565b60006120aa6120a584612057565b61203c565b9050828152602081018484840111156120c6576120c5611fd7565b5b6120d1848285612088565b509392505050565b600082601f8301126120ee576120ed611fd2565b5b81356120fe848260208601612097565b91505092915050565b60006020828403121561211d5761211c611cd4565b5b600082013567ffffffffffffffff81111561213b5761213a611cd9565b5b612147848285016120d9565b91505092915050565b60006020828403121561216657612165611cd4565b5b600061217484828501611f2a565b91505092915050565b61218681611e54565b82525050565b60006020820190506121a1600083018461217d565b92915050565b6121b081611d63565b81146121bb57600080fd5b50565b6000813590506121cd816121a7565b92915050565b600080604083850312156121ea576121e9611cd4565b5b60006121f885828601611f2a565b9250506020612209858286016121be565b9150509250929050565b600067ffffffffffffffff82111561222e5761222d611fdc565b5b61223782611de8565b9050602081019050919050565b600061225761225284612213565b61203c565b90508281526020810184848401111561227357612272611fd7565b5b61227e848285612088565b509392505050565b600082601f83011261229b5761229a611fd2565b5b81356122ab848260208601612244565b91505092915050565b600080600080608085870312156122ce576122cd611cd4565b5b60006122dc87828801611f2a565b94505060206122ed87828801611f2a565b93505060406122fe87828801611e75565b925050606085013567ffffffffffffffff81111561231f5761231e611cd9565b5b61232b87828801612286565b91505092959194509250565b6000806040838503121561234e5761234d611cd4565b5b600061235c85828601611f2a565b925050602061236d85828601611f2a565b9150509250929050565b6000806040838503121561238e5761238d611cd4565b5b600061239c85828601611f2a565b925050602083013567ffffffffffffffff8111156123bd576123bc611cd9565b5b6123c9858286016120d9565b9150509250929050565b7f4e487b7100000000000000000000000000000000000000000000000000000000600052602260045260246000fd5b6000600282049050600182168061241a57607f821691505b6020821081141561242e5761242d6123d3565b5b50919050565b7f4552433732313a20617070726f76656420717565727920666f72206e6f6e657860008201527f697374656e7420746f6b656e0000000000000000000000000000000000000000602082015250565b6000612490602c83611da4565b915061249b82612434565b604082019050919050565b600060208201905081810360008301526124bf81612483565b9050919050565b7f4552433732313a20617070726f76616c20746f2063757272656e74206f776e6560008201527f7200000000000000000000000000000000000000000000000000000000000000602082015250565b6000612522602183611da4565b915061252d826124c6565b604082019050919050565b6000602082019050818103600083015261255181612515565b9050919050565b7f4552433732313a20617070726f76652063616c6c6572206973206e6f74206f7760008201527f6e6572206e6f7220617070726f76656420666f7220616c6c0000000000000000602082015250565b60006125b4603883611da4565b91506125bf82612558565b604082019050919050565b600060208201905081810360008301526125e3816125a7565b9050919050565b7f4552433732313a207472616e736665722063616c6c6572206973206e6f74206f60008201527f776e6572206e6f7220617070726f766564000000000000000000000000000000602082015250565b6000612646603183611da4565b9150612651826125ea565b604082019050919050565b6000602082019050818103600083015261267581612639565b9050919050565b7f4f776e61626c653a2063616c6c6572206973206e6f7420746865206f776e6572600082015250565b60006126b2602083611da4565b91506126bd8261267c565b602082019050919050565b600060208201905081810360008301526126e1816126a5565b9050919050565b7f4552433732313a206f776e657220717565727920666f72206e6f6e657869737460008201527f656e7420746f6b656e0000000000000000000000000000000000000000000000602082015250565b6000612744602983611da4565b915061274f826126e8565b604082019050919050565b6000602082019050818103600083015261277381612737565b9050919050565b7f4552433732313a2062616c616e636520717565727920666f7220746865207a6560008201527f726f206164647265737300000000000000000000000000000000000000000000602082015250565b60006127d6602a83611da4565b91506127e18261277a565b604082019050919050565b60006020820190508181036000830152612805816127c9565b9050919050565b7f4552433732314d657461646174613a2055524920717565727920666f72206e6f60008201527f6e6578697374656e7420746f6b656e0000000000000000000000000000000000602082015250565b6000612868602f83611da4565b91506128738261280c565b604082019050919050565b600060208201905081810360008301526128978161285b565b9050919050565b600081905092915050565b60006128b482611d99565b6128be818561289e565b93506128ce818560208601611db5565b80840191505092915050565b60006128e682856128a9565b91506128f282846128a9565b91508190509392505050565b7f4f776e61626c653a206e6577206f776e657220697320746865207a65726f206160008201527f6464726573730000000000000000000000000000000000000000000000000000602082015250565b600061295a602683611da4565b9150612965826128fe565b604082019050919050565b600060208201905081810360008301526129898161294d565b9050919050565b7f4552433732313a206f70657261746f7220717565727920666f72206e6f6e657860008201527f697374656e7420746f6b656e0000000000000000000000000000000000000000602082015250565b60006129ec602c83611da4565b91506129f782612990565b604082019050919050565b60006020820190508181036000830152612a1b816129df565b9050919050565b7f4552433732313a207472616e736665722066726f6d20696e636f72726563742060008201527f6f776e6572000000000000000000000000000000000000000000000000000000602082015250565b6000612a7e602583611da4565b9150612a8982612a22565b604082019050919050565b60006020820190508181036000830152612aad81612a71565b9050919050565b7f4552433732313a207472616e7366657220746f20746865207a65726f2061646460008201527f7265737300000000000000000000000000000000000000000000000000000000602082015250565b6000612b10602483611da4565b9150612b1b82612ab4565b604082019050919050565b60006020820190508181036000830152612b3f81612b03565b9050919050565b7f4e487b7100000000000000000000000000000000000000000000000000000000600052601160045260246000fd5b6000612b8082611e54565b9150612b8b83611e54565b925082821015612b9e57612b9d612b46565b5b828203905092915050565b6000612bb482611e54565b9150612bbf83611e54565b9250827fffffffffffffffffffffffffffffffffffffffffffffffffffffffffffffffff03821115612bf457612bf3612b46565b5b828201905092915050565b7f4552433732313a20617070726f766520746f2063616c6c657200000000000000600082015250565b6000612c35601983611da4565b9150612c4082612bff565b602082019050919050565b60006020820190508181036000830152612c6481612c28565b9050919050565b7f4552433732313a207472616e7366657220746f206e6f6e20455243373231526560008201527f63656976657220696d706c656d656e7465720000000000000000000000000000602082015250565b6000612cc7603283611da4565b9150612cd282612c6b565b604082019050919050565b60006020820190508181036000830152612cf681612cba565b9050919050565b6000612d0882611e54565b91507fffffffffffffffffffffffffffffffffffffffffffffffffffffffffffffffff821415612d3b57612d3a612b46565b5b600182019050919050565b7f4e487b7100000000000000000000000000000000000000000000000000000000600052601260045260246000fd5b6000612d8082611e54565b9150612d8b83611e54565b925082612d9b57612d9a612d46565b5b828204905092915050565b6000612db182611e54565b9150612dbc83611e54565b925082612dcc57612dcb612d46565b5b828206905092915050565b7f4e487b7100000000000000000000000000000000000000000000000000000000600052603260045260246000fd5b7f4552433732313a206d696e7420746f20746865207a65726f2061646472657373600082015250565b6000612e3c602083611da4565b9150612e4782612e06565b602082019050919050565b60006020820190508181036000830152612e6b81612e2f565b9050919050565b7f4552433732313a20746f6b656e20616c7265616479206d696e74656400000000600082015250565b6000612ea8601c83611da4565b9150612eb382612e72565b602082019050919050565b60006020820190508181036000830152612ed781612e9b565b9050919050565b7f4552433732314d657461646174613a2055524920736574206f66206e6f6e657860008201527f697374656e7420746f6b656e0000000000000000000000000000000000000000602082015250565b6000612f3a602c83611da4565b9150612f4582612ede565b604082019050919050565b60006020820190508181036000830152612f6981612f2d565b9050919050565b600081519050919050565b600082825260208201905092915050565b6000612f9782612f70565b612fa18185612f7b565b9350612fb1818560208601611db5565b612fba81611de8565b840191505092915050565b6000608082019050612fda6000830187611ee9565b612fe76020830186611ee9565b612ff4604083018561217d565b81810360608301526130068184612f8c565b905095945050505050565b60008151905061302081611d0a565b92915050565b60006020828403121561303c5761303b611cd4565b5b600061304a84828501613011565b9150509291505056fea2646970667358221220ef22e32ccde2c92afc38d3da3a6a7ffe4ca05b8c1d5a9dc9e4f1278145a3089464736f6c63430008090033",
  "linkReferences": {},
  "deployedLinkReferences": {}
}